:020000040800F2
:10000000086C0020DD01000881130008E3020008ED
:100010007D1300085D0D0008B71D000800000000FA
:100020000000000000000000000000008116000831
:10003000A10E0008000000002F020008E5170008CC
:10004000F7010008F7010008F7010008F7010008B0
:10005000F7010008F7010008F7010008F7010008A0
:10006000A50E0008F7010008F7010008F7010008D5
:10007000F7010008F7010008F7010008F701000880
:10008000F7010008F7010008F7010008F701000870
:10009000F7010008F7010008F7010008D10E000879
:1000A000F7010008F7010008F7010008F701000850
:1000B000F7010008F7010008F7010008F701000840
:1000C000F7010008F7010008F7010008F701000830
:1000D000F7010008891A0008F7010008F701000875
:1000E000F7010008F7010008F7010008F701000810
:1000F000F7010008F7010008F7010008F701000800
:10010000F7010008F7010008F7010008F7010008EF
:10011000F7010008F701000871190008F70100084D
:10012000F7010008F7010008F7010008F7010008CF
:10013000F70100080000000000000000F7010008BF
:10014000F7010008F7010008F7010008F7010008AF
:10015000F7010008F7010008F7010008011B00087B
:10016000F7010008F7010008F7010008F70100088F
:10017000F7010008F7010008F7010008000000007F
:1001800000000000F701000800000000000000006F
:10019000F70100080000000000000000F70100085F
:1001A000000000000000000000000000F70100084F
:1001B000F7010008F7010008F7010008F70100083F
:1001C000F7010008DFF810D000F022FC00480047DB
:1001D0008B0A0008AFF30080086C002006488047B7
:1001E00006480047FEE7FEE7FEE7FEE7FEE7FEE71C
:1001F000FEE7FEE7FEE7FEE709190008C501000873
:10020000EFF3108072B6704780F310887047434A4E
:100210001368012B04D04FF001031360404A1060B3
:10022000404A116040484FF0805101607047EFF341
:10023000108272B63948016851B34FF00001016075
:100240003748016891B1EFF309811EF0100F08BF24
:1002500021ED108B21E9F00F4FF000041EF0100F7C
:1002600008BF012441F8044D006801602D49096868
:10027000096808C9B1E8F00F002B18BFB1EC108B6A
:1002800081F309884EF0100E002B18BF2EF0100ECF
:1002900082F310884EF0040E704722490860EFF395
:1002A000148222F0040282F314881D494FF00000EA
:1002B00008601A494FF0010008601C484FF47F01A4
:1002C000D0F8002041EA0201016017484FF0805148
:1002D000016017480068006880F3088861B662B65C
:1002E00070471EF0040F0CBFEFF30880EFF3098096
:1002F00020E9F00F40F804ED40F804ED1EF0040F83
:100300000CBF80F3088880F3098800B504F008FD6D
:100310005DF804EB4EF0040E70470000440100202D
:100320003C0100204001002004ED00E020ED00E051
:1003300008ED00E040EA01039B0703D009E008C98B
:10034000121F08C0042AFAD203E011F8013B00F89A
:10035000013B521EF9D27047D2B201E000F8012BE6
:10036000491EFBD270470022F6E710B513460A4635
:1003700004461946FFF7F0FF204610BD421E12F852
:10038000013F002BFBD111F8013B02F8013B002B90
:10039000F9D1704730B505462A460B4612F8010BD5
:1003A00013F8014B08B1A042F8D01CB1002802D0CC
:1003B0006D1CF1E7284630BD10B5044604E00B780B
:1003C00000F8013B03B1491C521EF8D2204610BD73
:1003D000421C10F8011B0029FBD1801A704703460C
:1003E00011F8012B00F8012B002AF9D118467047AB
:1003F00030B505460020034600E05B1C934205D261
:10040000EC5CC85C201A01D1002CF6D130BD2DE97E
:10041000FE4F804681EA0300C00F0C46009021F099
:10042000004123F00045B8EB0200A94105D2404647
:10043000214690461C460B46024623F000401043DE
:1004400047D0270DC7F30A00C3F30A510290401AA0
:10045000019040286BDAC3F3130040F4801B00982E
:10046000924620B10023D2EB030A63EB0B0B0198F9
:100470005946C0F14002504600F0D4F906460D46F8
:1004800050465946019A00F0ECF910EB0800614122
:10049000002487EA115284EAE7731A4340D0009A95
:1004A00062B3019A012A4FEA075215DC001B61EB87
:1004B00002014FF0004202EA0752CDE90042001C5F
:1004C00041F5801132462B4600F023FA03B0BDE817
:1004D000F08F40462146F9E7001B61EB0201001C4A
:1004E00041F5801300185B412018A2F5001747EB77
:1004F000030140EAD570B6196D4111E06D084FEA6D
:10050000360645EAC0754FEA0752001B61EB02014F
:10051000001C41F5801149084FEA30000019514193
:1005200032462B4603B0BDE8F04F00F0E3B9009827
:10053000012240000023D0EB020263EBE07300983D
:1005400021464FEAE074B8EB000061EB0401E9E7F3
:1005500083F000435BE781F0004158E72DE9FE4F4F
:1005600081EA030404F0004421F0004100944FF0BC
:10057000000B23F0004350EA01045ED052EA03046A
:100580005BD0C3F30A54C1F30A552C44A4F2F334EC
:100590000194A0FB0254C1F3130141F48011C3F391
:1005A000130343F4801301FB024400FB034E840A4F
:1005B000970A44EA815447EA8357A4FB07680295E7
:1005C0008D0A05FB07854FEA932C04FB0C54270585
:1005D000029D4FEA065847EA1637B5EB08056EEB61
:1005E000070C870E920E47EA811742EA8312A7FB97
:1005F0000201B6EB0B0164EB00042B0D43EA0C3354
:100600005E1844EB1C50DA465146E7FB0201C5F385
:1006100013044FEA0B3343EA14534FEA0432019CAC
:1006200043EA0603A4F10C040294009CCDE900B453
:1006300000F06FF903B0BDE8F08F00200146F9E744
:100640002DE9F04D81EA030404F0004B21F0004550
:1006500014464FF0000A23F0004150EA050220D072
:1006600054EA01021DD0C5F30A570246C5F313032D
:10067000C1F31300C1F30A5640F4801543F480130C
:10068000A7EB0608101BD64608F2FD3873EB0500F1
:1006900002D308F1010801E092185B41B8F1000FA4
:1006A00003DA00200146BDE8F08D00204FF48011F0
:1006B000064684460EE0171B73EB050705D3121B95
:1006C00063EB050306434CEA010C49084FEA30008E
:1006D00092185B4150EA0107EDD152EA030012D0B3
:1006E00082EA040083EA0501084305D0101BAB41F0
:1006F00006D20122002306E000224FF0004302E070
:100700006FF0010253101AEB06004CEB085110EB8E
:100710000A0041EB0B01BDE8F04D00F0EBB80EB55F
:1007200040F2334102910021CDE900110A460B4607
:1007300000F0EFF803B000BD00F0004230F00040E0
:100740000AD0C10D01F56071C0F3160042EA0151F3
:10075000C20840071143704700200146704701F06E
:10076000004330B421F0004150EA010206D00A0DE6
:10077000A2F56072C1F31301002A02DC30BC002034
:100780007047440F44EAC104C100E01830BC00EBDC
:10079000C25000F078B830B50B4601460020202248
:1007A000012409E021FA02F59D4205D303FA02F57E
:1007B000491B04FA02F52844151EA2F10102F1DCDE
:1007C00030BD2DE9F05F0546002092469B468846E5
:1007D0000646814640241BE02846414647462246BD
:1007E00000F02FF853465A46C01A914110D31146D3
:1007F0001846224600F016F82D1A67EB01084F46FE
:1008000022460120002100F00DF817EB00094E41AF
:10081000201EA4F10104DFDC484631462A46434647
:10082000BDE8F09F202A04DB203A00FA02F1002004
:1008300070479140C2F1200320FA03F3194390401E
:100840007047202A04DB203A21FA02F00021704789
:1008500021FA02F3D040C2F1200291400843194628
:100860007047202A06DBCB17203A41FA02F043EA10
:10087000E07306E041FA02F3D040C2F12002914059
:100880000843194670470029A8BF7047401C49001B
:1008900008BF20F00100704710B4B0FA80FC00FAE5
:1008A0000CF050EA010404BF10BC704749B1CCF110
:1008B000200421FA04F411FA0CF118BF012121439C
:1008C0000843A3EB0C01CB1D4FEA00614FEA102057
:1008D00042BF002010BC704700EBC35010440029F9
:1008E000A4BF10BC7047401C490008BF20F00100A5
:1008F00010BC704710B5141E73F1000408DA401CD8
:1009000041F1000192185B411A4301D120F001002E
:1009100010BD2DE9F04D92469B4611B1B1FA81F21E
:1009200002E0B0FA80F220329046FFF77BFF0446E7
:100930000F4640EA0A0041EA0B0153465A46084373
:1009400013D0114653EA010019D0C8F140025046B5
:10095000FFF777FF05460E46504659464246FFF7D9
:1009600061FF084305D0012004E020463946BDE878
:10097000F08D0020054346EAE0762C4337430A9881
:100980006305E40AA0EB08000022FD0A44EA47548C
:100990000A3002D500200146E9E701051019694136
:1009A000DDE9084500196941BDE8F04DA2E7C1F352
:1009B0000A52C1F3130140F2FF3341F480119A420D
:1009C00002DA00200146704740F233439A42A2F215
:1009D000334202DC5242FFF734BFFFF723BF00006F
:1009E00030B5041E71F1000404DB4FF000444042B6
:1009F00064EB0101141E73F1000405DB1C464FF08B
:100A00000043524263EB0403994208BF904230BD59
:100A1000064C074D06E0E06840F0010394E807004B
:100A200098471034AC42F6D3FFF7D0FBA87100080A
:100A3000C871000870B58C1810F8015B15F0070339
:100A400001D110F8013B2A1106D110F8012B03E067
:100A500010F8016B01F8016B5B1EF9D12B0705D46F
:100A60000023521E0DD401F8013BFAE710F8013BB8
:100A7000CB1A921C03E013F8015B01F8015B521ED4
:100A8000F9D5A142D8D3002070BD10B505F014FDF2
:100A9000002010BD21B1826842F00102826003E0B3
:100AA000826822F001028260704700000021084A3B
:100AB0001168084A1140D0E900231A4383681A4399
:100AC000C3681A431143044AC2F804137047000074
:100AD00004230140E030FCFF002001400146C86CC7
:100AE00080B270470246002013680B400BB1012012
:100AF00000E000207047000030B5024600200023CF
:100B00005068104C20400D790C6844EA05242043BD
:100B1000506090680C4C2040D1E903542C438D6800
:100B20002C434D7944EA450420439060D06A20F478
:100B300070000C7D641EE4B2234340EA0350D0628F
:100B400030BD0000FFFEFFFCFDF7FFC0F0B504461E
:100B50000D4600200021092D11DDE068A5F10A06EF
:100B600006EB4607072606FA07F18843A5F10A06B1
:100B700006EB460603FA06F10843E0600CE0206944
:100B800005EB4507072606FA07F1884305EB4506FE
:100B900003FA06F108432061072A0FDA606B561E3C
:100BA00006EB86071F2606FA07F18843561E06EB5A
:100BB000860605FA06F10843606322E00D2A0FDA83
:100BC000206BD61F06EB86071F2606FA07F188431F
:100BD000D61F06EB860605FA06F10843206310E0EF
:100BE000E06AA2F10D0606EB86071F2606FA07F15A
:100BF0008843A2F10D0606EB860605FA06F10843C6
:100C0000E062F0BD816841F0804181607047002161
:100C10000160017141718160C16001610121017553
:100C20007047000000B58DB00121084600F004FCBB
:100C30000121080200F020FC01200B9003208DF818
:100C4000300000208DF833000BA91B4800F0C0FADB
:100C50000121080200F020FC00214FF4807000F018
:100C60001BFC01A8FFF7D3FF002007900A90099012
:100C70004FF44030089007A8FFF718FF00200190BC
:100C80008DF8080001208DF80900002003900590E0
:100C900001208DF8180001A90848FFF72DFF072350
:100CA000012200210548FFF751FF01210348FFF70A
:100CB000F1FE0DB000BD0000000002400020014028
:100CC00000B58DB00121084600F0B6FB01214802B5
:100CD00000F0D2FB02200B9003208DF830000020A2
:100CE0008DF833000BA91B4800F072FA012148026D
:100CF00000F0D2FB00214FF4007000F0CDFB01A802
:100D0000FFF785FF002007900A9009904FF44030CC
:100D1000089007A8FFF7CAFE002001908DF8080090
:100D200001208DF8090000200390059001208DF826
:100D3000180001A90848FFF7DFFE0723012211462A
:100D40000548FFF703FF01210348FFF7A3FE0DB09D
:100D500000BD0000000002400021014000BFFEE78E
:100D600039B1084A1268012383401A43054B1A60BF
:100D700006E0044A1268012383409A43014B1A603B
:100D8000704700000074004030B5002200230A4C78
:100D9000226840F6FE748440A243D1E900452C430A
:100DA0008D682C43CD6844EA050303FA00F422431E
:100DB000014C226030BD00000074004008B50022E4
:100DC0000092054A009200F10802009B1A4400922A
:100DD000009A116008BD00000074004010B52DEDB0
:100DE000088BB0EE408A9FED140AF0EE408A18EEB0
:100DF000100AFFF7A1FC41EC1B0B9FED100B53EC0D
:100E0000102BFFF7ABFB41EC1A0B9FED0E0B53ECD5
:100E1000102BFFF715FC41EC190BFFF7A0FC08EEB7
:100E2000900ABCEEE80A10EE100A81B20020FFF72B
:100E3000C5FFBDEC088B10BD00000000E17A14AEC8
:100E4000476110406666666666660A4000B587B010
:100E50000121084600F0F0FA0121480700F0FCFAF1
:100E60001020059003208DF8180002208DF81B003B
:100E700005A90A4800F0ACF9002001900290039007
:100E8000049001A9FFF780FF01210020FFF768FF10
:100E900000210846FFF792FF07B000BD00000240A6
:100EA0007047000010B5042000F028F828B103A016
:100EB00001F0C2FB042000F01BF810BD4558544956
:100EC000325F49525148616E646C65720D0A0000D0
:100ED00010B54FF4807000F011F830B1034804F001
:100EE000B5FB4FF4807000F003F810BDF433002020
:100EF0000149086070470000143C01400146002091
:100F0000034A12680A400AB1012000E0002070473D
:100F1000143C0140002123498279002A3AD00A4634
:100F2000126803689A430B461A600A1D1268036828
:100F30009A430B1D1A60027911440A6803681A4328
:100F40000A60184A0832126803689A43154B08333E
:100F50001A601A1D126803689A43124B0C331A6008
:100F60004279102A0ED11A1F126803681A430D4BDA
:100F700008331A601A1D126803681A43094B0C33B0
:100F80001A600DE00749427911440A6803681A4360
:100F90000A6005E0027911440A6803689A430A600E
:100FA00070470000003C01401CB50121084600F0DC
:100FB00043FA0121022000F03FFA0121042000F051
:100FC0003BFA4FF40050009001208DF804000020FF
:100FD0008DF8060003208DF8050001208DF807002C
:100FE0006946784800F0F4F84FF4805000900120F2
:100FF0008DF8040000208DF8060003208DF8050010
:1010000001208DF8070069466F4800F0E1F84FF4C1
:101010008040009001208DF8040000208DF806002B
:1010200003208DF8050001208DF807006946664809
:1010300000F0CEF84FF40040009001208DF804003D
:1010400000208DF8060003208DF8050001208DF8A2
:10105000070069465C4800F0BBF84FF480700090D0
:1010600001208DF8040000208DF8060003208DF883
:10107000050001208DF807006946524800F0A8F8E5
:101080004FF40070009001208DF8040000208DF8CE
:10109000060003208DF8050001208DF80700694641
:1010A000484800F095F84FF48070009001208DF8CA
:1010B000040000208DF8060003208DF805000120B3
:1010C0008DF807006946414800F082F84FF400505F
:1010D000009001208DF8040000208DF80600032008
:1010E0008DF8050001208DF807006946364800F0AC
:1010F0006FF8012000908DF8040000208DF80600A4
:1011000003208DF8050002208DF8070069462D4860
:1011100000F05EF84FF48050009001208DF804003C
:1011200000208DF8060003208DF8050001208DF8C1
:1011300007006946254800F04BF84FF40060009026
:1011400001208DF8040000208DF8060003208DF8A2
:10115000050001208DF8070069461C4800F038F8AA
:101160004FF48051184800F0A7F84FF4804116481A
:1011700000F0A2F84FF40041134800F09DF84FF43E
:101180008071104800F098F84FF400710D4800F09D
:1011900093F84FF480710D4800F08EF84FF4005131
:1011A000094800F089F80121064800F085F84FF45D
:1011B0008051064800F080F84FF40061034800F0C9
:1011C0007BF81CBD00080240000402400000024001
:1011D000F0B50A4600210023002400BF3DE00125B0
:1011E00005FA01F3156805EA03049C4234D1056849
:1011F0004F000326BE40B543056015794E00B5404B
:101200000668354305601579012D02D01579022D48
:1012100016D185684F000326BE40B54385605579D9
:101220004E00B540866835438560456801268E408E
:10123000B5434560456896798E40B6B23543456002
:10124000C5684F000326BE40B543C560D5794E0042
:10125000B540C6683543C560491C1029BFD3F0BDF1
:10126000F0B5002300244D07ED0E02FA05F3CE1071
:1012700000F1200555F826504E07F70E0F26BE4008
:10128000B543CF1000F1200646F82750CE1000F1EC
:10129000200555F8265045EA0304CE1000F120053C
:1012A00045F82640F0BD0246002013690B400BB103
:1012B000012000E0002070474183704701837047A0
:1012C00042694A404261704710B50748FFF79AFCEF
:1012D00000BF02210448FFF705FC0028F9D00248AE
:1012E000FFF7FCFB10BD00000020014010B50748CF
:1012F000FFF788FC00BF02210448FFF7F3FB00283A
:10130000F9D00248FFF7EAFB10BD000000210140C0
:1013100010B54FF4C06000F071F800F00BF802F067
:10132000EFFAFFF741FE4FF4E13000F02FFBFFF73B
:101330008DFD10BD10B5104800684FF47A71B0FBF8
:10134000F1F4601EB0F1807F00D30FE0601E4FF01B
:10135000E02148610F214FF0FF3000F059F80020E4
:101360004FF0E02188610720086100BF0021481E7E
:1013700000F04EF810BD00002401002000BFFEE781
:101380007047000070B5002100230F22C4781CB301
:10139000174C246804F4E064C4F5E064C4F3072146
:1013A000C1F10404E3B20A4144789C40E1B284787C
:1013B000144021430C07210E0E4C0578615504782A
:1013C00004F01F050124AC4005786D11AD0005F156
:1013D000E025C5F8004109E0047804F01F05012468
:1013E000AC40054D0678761145F8264070BD0000EA
:1013F0000CED00E000E400E080E100E00249014380
:10140000024A1160704700000000FA050CED00E090
:1014100010B5002807DA0A07140E054A00F00F037A
:101420001B1FD45403E00A07130E024A135410BDC5
:1014300018ED00E000E400E029B1064A126802431A
:10144000044B1A6004E0034A12688243014B1A609D
:10145000704700003038024029B1064A1268024342
:10146000044B1A6004E0034A12688243014B1A607D
:10147000704700004038024029B1064A1268024312
:10148000044B1A6004E0034A12688243014B1A605D
:10149000704700004438024029B1064A12680243EE
:1014A000044B1A6004E0034A12688243014B1A603D
:1014B00070470000243802402DE9F041002100234C
:1014C00000240226002502220227DFF8A4C1DCF84E
:1014D00000C00CF00C0131B1042909D008290CD04E
:1014E0000C297CD148E0DFF88CC1C0F800C089E04D
:1014F000DFF884C1C0F800C084E0DFF874C1ACF14B
:10150000040CDCF800C0CCF38055DFF864C1ACF10A
:10151000040CDCF800C00CF03F0275B1DFF858C1D4
:10152000BCFBF2FCDFF84881A8F10408D8F8008081
:10153000C8F388180CFB08F40DE0DFF838C1BCFBD9
:10154000F2FCDFF82C81A8F10408D8F80080C8F379
:1015500088180CFB08F4DFF818C1ACF1040CDCF8B7
:1015600000C0CCF3014C0CF1010C4FEA4C06B4FB6B
:10157000F6FCC0F800C045E0DFF8F4C0ACF1040CA4
:10158000DCF800C0CCF38055DFF8E4C0ACF1040C0B
:10159000DCF800C00CF03F0275B1DFF8DCC0BCFB2A
:1015A000F2FCDFF8CC80A8F10408D8F80080C8F37A
:1015B00088180CFB08F40DE0DFF8B8C0BCFBF2FCA7
:1015C000DFF8AC80A8F10408D8F80080C8F38818C8
:1015D0000CFB08F4DFF898C0ACF1040C00E00CE060
:1015E000DCF800C0CCF3027C0CF1010C4FEA4C0794
:1015F000B4FBF7FCC0F800C004E0DFF878C0C0F826
:1016000000C000BF00BFDFF868C0DCF800C00CF00D
:10161000F0010909DFF864C01CF80130D0F800C0FF
:101620002CFA03FCC0F804C0DFF844C0DCF800C0AA
:101630000CF4E051890ADFF844C01CF80130D0F8FE
:1016400004C02CFA03FCC0F808C0DFF824C0DCF8A2
:1016500000C00CF46041490BDFF820C01CF80130D9
:10166000D0F804C02CFA03FCC0F80CC0BDE8F0812F
:10167000083802400024F40040787D011401002065
:101680007047000030B500228B071C0F0F2303FAB0
:1016900004F20B4B8C1053F824309343084C8D10FC
:1016A00044F8253023468C1053F824308C07240F3F
:1016B00000FA04F42343024C8D1044F8253030BD69
:1016C000083801400CB500200190009041480068A6
:1016D00040F480303F49086000BF3E48006800F495
:1016E000003000900198401C0190009818B90198B2
:1016F000B0F5A04FF1D13748006800F4003010B1C8
:101700000120009001E0002000900098012860D1A5
:1017100030484030006840F080502E494031086029
:101720002D48006840F440402B49086029480830A3
:1017300000682849083108600846006840F4004005
:1017400008600846006840F4A05008602348091F5C
:101750000860081F006840F08070091F086000BF23
:101760001C48006800F000700028F9D01A48006892
:1017700040F480301849086000BF1748406800F402
:1017800080300028F9D01448006840F40030124935
:10179000086000BF1048406800F400300028F9D00D
:1017A00040F205700E4908600A480830006820F0D1
:1017B00003000849083108600846006840F002004C
:1017C000086000BF03480830006800F00C000828DB
:1017D000F8D10CBD0038024000700040195A407723
:1017E000003C024010B503F067FE10BDF0B50021CB
:1017F000002202240023022002253E4E366806F015
:101800000C0131B1042908D008290AD00C2960D173
:1018100033E0394E394F3E605FE0394E374F3E601E
:101820005BE0344E361F3668C6F38053314E361FA8
:10183000366806F03F0053B1314EB6FBF0F62D4F3F
:101840003F1F3F68C7F3881706FB07F209E02A4EDF
:10185000B6FBF0F6274F3F1F3F68C7F3881706FB1C
:1018600007F2244E361F3668C6F30146761C740014
:10187000B2FBF4F6214F3E602FE01E4E361F366855
:10188000C6F380531B4E361F366806F03F0053B137
:101890001B4EB6FBF0F6174F3F1F3F68C7F3881784
:1018A00006FB07F209E0144EB6FBF0F6114F3F1F9E
:1018B0003F68C7F3881706FB07F20E4E361F3668DF
:1018C000C6F30276761C7500B2FBF5F60B4F3E6050
:1018D00003E0094E094F3E6000BF00BF054E366869
:1018E000C6F30316074FB95D044E3668CE40034F6A
:1018F0003E60F0BD083802400024F40024010020BE
:1019000040787D012801002010B51548006840F49A
:101910007000134908601348006840F00100114945
:10192000086000200F49083108600E4800680E4921
:1019300008400C4908600D48091D0860081F006830
:1019400020F48020091F0860002006490C3108603F
:10195000FFF7B8FE4FF0006001498039086010BD04
:1019600088ED00E000380240FFFFF6FE1030002452
:101970000548008A00F0010028B10348008A20F0E1
:1019800001000149088270470010004010B588B07E
:10199000044625208DF8040000208DF80500022063
:1019A0008DF8060001208DF8070001A8FFF7EAFC7A
:1019B00001210846FFF740FD01211020FFF75CFDE3
:1019C000072209212648FFF74BFC07220A21244859
:1019D000FFF746FC4FF40070029002208DF80C00D7
:1019E00003208DF80D0000208DF80E0001208DF8E9
:1019F0000F0002A91A48FFF7EBFB4FF4806002903A
:101A000002A91748FFF7E4FB04940020ADF8140086
:101A1000ADF81600ADF81800ADF81C000C20ADF8BC
:101A20001A0004A90F4800F021F9012240F22441D4
:101A30000C4800F0F6F8012240F22551094800F068
:101A4000F0F84021074800F091F81021054800F017
:101A50008DF80121034800F0A1F808B010BD000086
:101A6000000002400010014010B5064C00206060EC
:101A70002060E06020724FF4805104F11000FEF706
:101A800072FC10BD2C37002070B500251A4C40F2B6
:101A900025511A4800F09BF8F0B1184800F082F97F
:101AA000C5B240F22551154800F069F8D4E90001AB
:101AB000401AB0F5805F08D22088C0F30B0104F112
:101AC000100045542068401C20602088A188401ADE
:101AD000C0F30B00E0600DE040F22441074800F045
:101AE00076F838B105480088C5B204488088C5B288
:101AF0000120207270BD00002C3700200010014032
:101B000070B50025174C40F22551174800F05FF8DA
:101B1000D0B1154800F046F9C5B240F2255112483F
:101B200000F02DF8D4E90001401AFF2806D82178EA
:101B300004F1100045542068401C20602078217971
:101B4000401AC0B2E0600BE040F22441064800F0C9
:101B50003EF828B11021044800F011F8012020724D
:101B600070BD00001C3500200014014001F400721B
:101B7000B2F5007F00D100BFCA430280704710B5A4
:101B80000022002340F66A14A14200D100BF0A12CD
:101B900001249440A3B2DC43048010BD21B18289AA
:101BA00042F40052828104E082894DF6FF731A40AC
:101BB0008281704702460020B1F5007F00D100BF4E
:101BC00013880B400BB1012000E00020704770B576
:101BD0000246002400230025002040F66A16B14288
:101BE00000D100BFC1F3421501F01F03012606FA20
:101BF00003F3012D02D19689334006E0022D02D174
:101C0000168A334001E0968A33400C12012606FA08
:101C100004F41688344013B10CB1012000E0002018
:101C200070BDF0B50346002400260025002040F6D4
:101C30006A17B94200D100BF1846C1F3421401F03F
:101C40001F06012707FA06F5012C01D10C3004E02C
:101C5000022C01D1103000E014301AB107682F4374
:101C6000076002E00768AF430760F0BD2DE9FF475A
:101C700005460E460024A14600BFA046B08900B12B
:101C800000BF2C8A24F44054F08804432C82AC8991
:101C900041F20C608443B08831890843718908435C
:101CA0000443AC81AC8A24F44074B0890443AC8210
:101CB0006846FFF701FC2048854202D01F48854254
:101CC00002D1DDF80C9001E0DDF80890A88900F45D
:101CD000004040B109EBC90000EB09103168490030
:101CE000B0FBF1F707E009EBC90000EB0910316820
:101CF0008900B0FBF1F76420B7FBF0F00401200984
:101D0000642101FB1078A88900F4004040B1322022
:101D100000EBC800B0FBF1F000F00700044308E05E
:101D2000322000EB08106421B0FBF1F000F00F004E
:101D300004432C81BDE8FF870010014000140140DE
:101D400070B504460D4600262946204600F02FF8BF
:101D500000BF208800F0400020B93046761CB0F566
:101D6000A02FF6D370BD2DE9F04107460C4615466D
:101D7000002606E014F8011B3846FFF7E1FF701C4F
:101D800086B2AE42F6DBBDE8F08170B505460C4682
:101D900004E014F8011B2846FFF7D2FF2078002842
:101DA000F7D170BD01468888C0F308007047C1F3C1
:101DB00008028280704700BFFEE7000010B5114C9A
:101DC00011A000F039FC14A000F0F2FB02E0642046
:101DD00003F032FF207A0028F9D0207A012810D1B0
:101DE00004F110020EA0E16800F026FC134904F192
:101DF0001000FEF7CFFA10B111A000F01DFCFFF7A4
:101E000033FE10BD2C370020574946495F41545FCF
:101E1000546573740D0A000041540D0A000000005F
:101E2000776966695F727820646174613A6C656E87
:101E30003D25640D0A25730D0A000000C66C0008DC
:101E4000415420436F6D6D616E642074657374201E
:101E50004F4B0D0A0000000010B50E4C0EA000F014
:101E6000A7FB40F6B83003F0E7FE207A012810D136
:101E700004F1100212A0E16800F0DEFB174904F142
:101E80001000FEF787FA10B115A000F0D5FBFFF7A0
:101E9000EBFD10BD2C37002041542B4349505354C7
:101EA0004152543D22544350222C223139322E319A
:101EB00036382E342E31222C383838380D0A0000AE
:101EC000776966695F727820646174613A6C656EE7
:101ED0003D25640D0A25730D0A000000C66C00083C
:101EE00043726561745F536F636B6574204F4B0D74
:101EF0000A00000010B51C4C1CA000F059FB4FF468
:101F0000FA6003F099FE207A012810D104F1100242
:101F10001AA0E16800F090FB1F4904F11000FEF7E1
:101F200039FA10B11DA000F087FBFFF79DFD1FA03F
:101F300000F03EFB4FF4FA6003F07EFE207A0128A9
:101F400010D104F110020DA0E16800F075FB1249F8
:101F500004F11000FEF71EFA10B117A000F06CFBA0
:101F6000FFF782FD10BD00002C37002041542B43A9
:101F70004950434C4F53450D0A000000776966698C
:101F80005F727820646174613A6C656E3D25640D02
:101F90000A25730D0A000000C66C0008434950432F
:101FA0004C4F5345204F4B0D0A00000041542B432A
:101FB000575141500D0A00004357514150204F4B9B
:101FC0000D0A000070B5A0B005460E46134C8021E6
:101FD0006846FEF7C8F933462A4611A1684600F064
:101FE0003BFB684600F0E4FA41F2883003F024FE3F
:101FF000207A012810D104F110020FA0E16800F04E
:102000001BFB144904F11000FEF7C4F910B112A033
:1020100000F012FBFFF728FD20B070BD2C37002028
:1020200041542B43574A41503D222573222C2225EF
:1020300073220D0A00000000776966695F727820DC
:10204000646174613A6C656E3D25640D0A25730DFB
:102050000A000000C66C0008574A4150204F4B0D43
:102060000A00000070B505460326234C55B94FF40D
:1020700080512248FFF720F94FF400611F48FFF715
:102080001BF938E035E04FF400611C48FFF716F902
:102090004FF480511948FFF711F94FF4FA6003F03B
:1020A000CBFD207A012824D104F1130214A0E168A9
:1020B00000F0C2FA194904F11300FEF76BF940B1C0
:1020C00017A000F0B9FA01201C490870FFF7CCFCFA
:1020D00010E04FF480510948FFF7EEF84FF400612B
:1020E0000648FFF7E9F840F6B83003F0A5FDFFF722
:1020F000BBFCC8E700BF70BD2C37002000000240C9
:10210000776966695F727820646174613A6C656EA4
:102110003D25640D0A25730D0A000000BC6C000803
:1021200057494649204D6F64756C6520504F57459F
:1021300052204F4E204F4B0D0A000000000000209F
:1021400010B5294C29A000F033FA4FF47A7003F04F
:1021500073FD207A012810D104F1100227A0E16854
:1021600000F06AFA2C4904F11000FEF713F910B1DF
:102170002AA000F061FAFFF777FC2BA000F018FA14
:102180004FF47A7003F058FD207A012810D104F141
:1021900010021AA0E16800F04FFA1F4904F1100084
:1021A000FEF7F8F810B124A000F046FAFFF75CFC47
:1021B00025A000F0FDF94FF47A7003F03DFD207A80
:1021C000012810D104F110020CA0E16800F034FAEB
:1021D000114904F11000FEF7DDF810B11EA000F067
:1021E0002BFAFFF741FC10BD2C37002041542B4344
:1021F000574D4F44453F0D0A00000000776966695E
:102200005F727820646174613A6C656E3D25640D7F
:102210000A25730D0A000000C66C000843574D4F95
:102220004445204F4B0D0A0041542B435753544112
:1022300054453F0D0A000000435753544154452074
:102240004F4B0D0A0000000041542B43495053549A
:10225000413F0D0A00000000434950535441204FB4
:102260004B0D0A0010B50E4C0EA000F0A1F941F282
:10227000883003F0E1FC207A012810D104F110022B
:102280000BA0E16800F0D8F9104904F11000FEF746
:1022900081F810B10EA000F0CFF9FFF7E5FB10BDFB
:1022A0002C37002041542B43574C41500D0A00005D
:1022B000776966695F727820646174613A6C656EF3
:1022C0003D25640D0A25730D0A000000C66C000848
:1022D000575343414E204F4B0D0A000070B5054641
:1022E0000E460E4C0EA000F063F940F6B83003F035
:1022F000A3FC207A012810D104F110020CA0E1689F
:1023000000F09AF9114904F11000FEF743F810B1FA
:102310000FA000F091F9FFF7A7FB70BD2C3700204C
:1023200041542B4357444843503D312C310D0A0052
:10233000776966695F727820646174613A6C656E72
:102340003D25640D0A25730D0A000000C66C0008C7
:10235000435744484350204F4B0D0A0070B5054683
:102360000E460E4C0EA000F023F94FF47A7003F0E5
:1023700063FC207A012810D104F110020CA0E1685E
:1023800000F05AF9114904F11000FEF703F810B1FA
:102390000FA000F051F9FFF767FB70BD2C3700204C
:1023A00041542B43574D4F44453D312C310D0A00CC
:1023B000776966695F727820646174613A6C656EF2
:1023C0003D25640D0A25730D0A000000C66C000847
:1023D00043574D4F4445204F4B0D0A0070B50546FD
:1023E0001D4CDDB91DA000F0E3F84FF47A7003F046
:1023F00023FC207A01282ED104F110021BA0E168F1
:1024000000F01AF9204904F11000FDF7C3FF10B1E4
:102410001EA000F011F9FFF727FB1CE0012D1AD1D7
:102420001DA000F0C5F84FF47A7003F005FC207A87
:10243000012810D104F110020CA0E16800F0FCF8B2
:10244000114904F11000FDF7A5FF10B10FA000F035
:10245000F3F8FFF709FB70BD2C37002041542B43E4
:1024600049504D55583D300D0A00000077696669A6
:102470005F727820646174613A6C656E3D25640D0D
:102480000A25730D0A000000C66C00084349504D30
:102490005558204F4B0D0A0041542B4349504D5580
:1024A000583D310D0A000000F0B591B005460E46CA
:1024B0001746244C402101A8FDF755FF3A4622A1BA
:1024C00001A800F0C9F801A800F072F802E00A20A3
:1024D00003F0B2FB207A0028F9D004F110021EA00C
:1024E000E16800F0A9F8234904F11000FDF752FF5C
:1024F00010B121A000F0A0F8FFF7B6FA1DB93046E0
:1025000000F056F803E03946304600F05BF802E090
:102510000A2003F091FB207A0028F9D004F1100280
:1025200019A0E16800F088F8124904F11000FDF7E5
:1025300031FF10B11BA000F07FF8FFF795FA11B042
:10254000F0BD00002C37002041542B434950534527
:102550004E443D25640D0A003030776966695F722C
:102560007820646174613A6C656E3D25640D0A25BE
:10257000730D0A00C66C000843495053454E442071
:102580004F4B0D0A000000003131776966695F72B8
:102590007820646174613A6C656E3D25640D0A258E
:1025A000730D0A0053454E44204F4B0D0A000000A6
:1025B00010B5044621460248FFF7E7FB10BD0000B6
:1025C0000010014070B504460D462A4621460248D7
:1025D000FFF7C9FB70BD00000010014030B5014697
:1025E000481EB0F1807F01D3012030BD481E4FF05E
:1025F000E022506150170F22002807DA13071D0E42
:102600000B4B00F00F04241F1D5503E013071C0E95
:10261000084B1C5400BFFF20054A0B3210700020ED
:102620004FF0E0229061072010610020DDE70000FC
:1026300018ED00E000E400E00FB4054B10B503A96D
:10264000044A029800F04AF910BC5DF814FB00003F
:10265000ED370008100100200FB4084B10B504A995
:1026600002AA039800F03AF9044602A9002000F0FB
:102670002AFD204610BC5DF814FB0000C73000089E
:10268000014609B900207047C8B220B1C8B20E4A4D
:10269000105C401CF7E701F47F4028B10A48C1F301
:1026A0000722805C0930EEE701F47F0028B106487C
:1026B000C1F30742805C1130E5E7034800EB11608D
:1026C00000781930DFE70000246D000802E008C838
:1026D000121F08C1002AFAD170477047002001E09C
:1026E00001C1121F002AFBD1704700002DE9FF5FD6
:1026F00082B00021DDE90430020DDDF840B0034373
:1027000018D044F61050A2F2FF324243151411982B
:1027100001281FD0A5EB0B00401C5FEA000A4FF018
:1027200000064E4FDFF83891B046504615D5CAF135
:10273000000413E0119801244AA3012801D16FEA93
:102740000B010298119AC0E90031C0E9024206B0BB
:10275000BDE8F09FCBF10000DFE704460021404ACE
:10276000491842EB0450CDE9001012E0E00707D011
:1027700032463B4640464946FDF7F0FE80468946D4
:1027800032463B4610461946FDF7E8FE06460F4620
:102790006410002CEAD1DDE90401DDE90023BAF17F
:1027A000000F06DAFDF7DAFE42464B46FDF7D6FE8D
:1027B00005E0FDF745FF42464B46FDF741FF044665
:1027C0000E460022284BFEF70BF903D84FF0FF30DE
:1027D000014607E00022254B20463146FDF717FE53
:1027E000FEF7E5F8102409E0002C0ADB0A2200239A
:1027F000FDF7E7FF039B30321A55641E50EA0102D1
:10280000F2D1641C039AC4F111031444119A012AF1
:1028100003D0012208430DD10AE0084304D0002070
:102820004FF0110B119072E7A3EB0B056D1E0DE03D
:102830005B4504DD4FF0000205F1010504E003DA19
:102840004FF00002A5F10105002AECD00298119981
:10285000C0E90231C0E9004579E7000000001440FA
:102860000000F03F300000000000F0430000E03FB7
:102870002DE9F04389B0064688469146002400E0E1
:10288000641C305D202804D0305D092801D0444507
:10289000F6D324B94FF0FF3009B0BDE8F0832146EC
:1028A000304601F0F9FE054615B94FF0FF30F3E769
:1028B000202101A8FDF757FD01AA4146304601F04D
:1028C0005BFF074617B94FF0FF30E5E701A938462F
:1028D000A847C9F800000020DEE700002DE9FF4FFF
:1028E00095B09A46884606460025EEE1252877D120
:1028F00000242746F94A0121039400E0044316F816
:10290000013F203B01FA03F01042F7D130782A282A
:1029100011D06FF02F033078A0F13002092A16D8B9
:10292000039A44F0020402EB820203EB42021044D9
:10293000761C0390EFE758F8042B0392002A03DA81
:10294000504244F40054039044F00204761C307862
:102950002E2816D116F8010F44F004042A280DD0B1
:102960006FF02F023078A0F13003092B09D807EB64
:10297000870302EB4303C718761CF3E758F8047B80
:10298000761C30786C280FD006DC4C2817D06828CD
:102990000DD06A2814D104E0742810D07A280FD101
:1029A0000DE044F400140AE044F4801401E044F41F
:1029B00040147278824202D104F58014761C761C91
:1029C000307866280BD013DC582877D009DC002833
:1029D00075D04528F6D04628F4D047281AD193E17F
:1029E00018E0632835D0642879D0652812D18BE1AE
:1029F000702873D008DC6728F1D069286FD06E2862
:102A00000DD06F2806D1ACE073282CD0752874D077
:102A1000782853D05246179990476D1C54E1C4F35F
:102A20000250022809D003280DD0D8F8001004283D
:102A30000DD00D6008F1040846E1D8F80010EA173F
:102A4000C1E90052F6E7D8F800100D80F2E70D70EA
:102A5000F0E718F8041B8DF8001000208DF8010035
:102A6000EB46012003E058F804BB4FF0FF3061074C
:102A70004FF0000102D40DE009F101018946B9428D
:102A80000FDA8145F8DB1BF809100029F4D108E0C2
:102A900009F1010189468142FADB1BF8091000297E
:102AA000F6D103985346A0EB090721463846179AFA
:102AB00000F080FA284400EB090507E044E008E153
:102AC0000DE01BF8010B524617999047B9F1010927
:102AD000F7D2534621463846179AF2E039E00A21E8
:102AE000C4F302524FF0000B0091022A06D058F8AE
:102AF000040BC117032A09D00AE023E008F10700FC
:102B000020F00702F2E80201904605E000B2C1178A
:102B1000042A01D140B2C117002906DA0A46002171
:102B2000404261EB02012D2202E0220504D52B2256
:102B30008DF80420012203E0E20701D02022F7E70C
:102B4000914657E00A2100E010214FF0000B009160
:102B50000BE010214FF0000B44F004040827009113
:102B600003E008204FF0000B0090C4F30252022A49
:102B700005D058F8040B0021032A08D008E008F11A
:102B8000070020F00702F2E80201904603E080B25D
:102B9000042A00D1C0B24FF0000922072AD53278AA
:102BA000702A07D0DDF800C08CF0100C5CEA0B0C2A
:102BB00005D00EE040228DF80420012208E050EA02
:102BC000010306D030238DF804308DF80520022251
:102BD0009146009B83F0080353EA0B030AD150EAA5
:102BE000010201D1620705D530228DF804204FF093
:102BF00001097F1E3278582A04D039A20C920CAAFF
:102C000002920BE03BA2F9E75B46009AFDF7D9FD83
:102C10000C9B9B5C029A521E0292137050EA0102B6
:102C2000F2D1029804A9081A00F1200B600702D51E
:102C300024F4803400E001275F4502DDA7EB0B00A0
:102C400000E0002000EB0B01009003984944401A7B
:102C50000390E00306D453462146179A039800F0E8
:102C6000A9F90544002706E001A85246C05D17995E
:102C700090476D1C7F1C4F45F6DBE0030CD5534697
:102C80002146179A039800F095F9054404E0302096
:102C90005246179990476D1C0099481E00900029D4
:102CA000F5DC08E00298029952460078491C02912E
:102CB000179990476D1CBBF10001ABF1010BF1DCE2
:102CC0005BE100F065F90544761C307800287FF45C
:102CD0000DAE19B02846BDE8F08F000009280100AC
:102CE0003031323334353637383961626364656682
:102CF0000000000030313233343536373839414244
:102D00004344454600000000600700D4062708F150
:102D1000070020F00700F0E80223804603F0004C93
:102D20005FEA0C0001D097A009E0200501D596A02C
:102D300005E0E00701D095A001E0AFF24C00139050
:102D4000307823F0004365280CD006DC452809D0F4
:102D500046281DD047287FD13BE0662818D0672839
:102D60007AD136E00021112F01DB112000E0781C20
:102D7000CDE9000104A90CA8FFF7B8FCDDE90D01BD
:102D80000C9A4FF0000B07F10109109200914EE0F0
:102D90004FF000400097CDE9011004A90CA8FFF7FF
:102DA000A5FCDDE90D020C9B0F994FF0000B91463D
:102DB0001093009211B9791C00EB0109B7EB0900DF
:102DC00003D4C0F1FF3B07F10109A9EB0700019013
:102DD00042E0012F00DA01270021112F01DD11202F
:102DE00000E03846CDE9000104A90CA8FFF77EFCFD
:102DF000DDE90D010C9A00914FF0000BB9461092DD
:102E000021070FD4009A4A4503DA914601E0A9F15F
:102E10000109B9F1010F05DD109AA9F10101515C19
:102E20003029F4D0B84202DA10F1040F03DA01219C
:102E3000CDE9011010E0002803DC8344A9EB000178
:102E400002E0411C494500DD8946A0EB0B00401C17
:102E500001904FF000400290200705D401984845AA
:102E600002DB4FF0FF30019000208DF84B000298FC
:102E70000DF14B07B0F1004F25D002200C902B2014
:102E80000D90029800280CDA404202902D200D90FF
:102E900007E00A210298FDF77EFC3031029007F826
:102EA000011D0C99481E0C900029F2DC02980028A4
:102EB000EFD1791E0D980870307800F0200040F0B6
:102EC000450007F8020D11A8C01BC01D0290139801
:102ED000007800B1012000EB0901019801EBE071DD
:102EE000029801440398401A401E0390E00306D460
:102EF00053462146179A039800F05CF8054413984E
:102F0000007818B15246179990476D1CE00323D5FD
:102F100053462146179A039800F04CF805441BE0ED
:102F2000BBF1000F07DB0098584504DD1098179996
:102F300010F80B0001E01799302052469047019895
:102F40000BF1010B401E05F10105019004D12E206B
:102F50005246179990476D1CB9F10001A9F101097A
:102F6000DEDC05E017F8010B5246179990476D1CFF
:102F70000299481E02900029F4DC53462146179A14
:102F800003989EE62D0000002B00000020000000AA
:102F90002DE9F041044600251E461746880404D456
:102FA00005E039462020B0476D1C641EF9D528463F
:102FB000BDE8F0812DE9F041044600251E4690460B
:102FC000C80301D5302700E02027880404D505E098
:102FD00041463846B0476D1C641EF9D52846BDE809
:102FE000F08100002DE9FC5F04468B4615461E4625
:102FF000DDE90C9ADDE90E7804F11C004060006008
:1030000000BF24346560A660C4F80C90C4F810A01A
:103010002321D4E9030202F098F9D4E9033C634484
:103020001A1F0F4BD4E9010101F090FF2060A77631
:1030300067760020E061C4F82080C4F824806061D5
:103040002076E0652066243C00902346054A214610
:10305000019004F14C0002F0ACFF0020BDE8FC9FA1
:10306000095B0008495D00082DE9F04704460E465B
:1030700017469846DDF8209084F81190607C20F087
:10308000010060746662A76200202063C4F82C808F
:10309000002506E004F11C0101EBC50002F022F856
:1030A0006D1C012DF6DBBDE8F08770B505460024E8
:1030B00006E005F11C0101EBC40002F066F8641C97
:1030C000012CF6DB70BD0A68531C0B601070704752
:1030D00070B50446FDF794F80546D4F8800018B1A1
:1030E0002046D4F8801088472846FDF78DF870BD3B
:1030F000642002F0A1FD03E04FF4FA6002F09CFDB1
:10310000FAE7000010B520A001F0CAFF21480178BD
:1031100021A001F0C5FF1F48007800F0010010B1A8
:1031200023A001F0BDFF1B48007800F0020010B1A1
:1031300022A001F0B5FF1748007800F0040010B19C
:1031400021A001F0ADFF1348007800F0080010B195
:1031500021A001F0A5FF0F48007800F0100010B189
:1031600020A001F09DFF0B48007800F0800030B1F6
:1031700008480F3001681DA001F092FF02E01FA077
:1031800001F08EFF10BD0000627573206661756CE2
:10319000743A0A0029ED00E05343425F434653521C
:1031A0005F424653523A30782530325820000000B2
:1031B00049425553455252200000000050524543A9
:1031C0004953455252200000494D505245434953FE
:1031D0004552522000000000554E53544B45525268
:1031E0002000000053544B45525220005343422DBF
:1031F0003E424641523A253038580A000A00000043
:1032000070B504460D4600F0ABFE002070BD70B5F1
:1032100004460D4600F07CFF002070BD00B587B06D
:1032200001210420FEF708F901212020FEF724F9EE
:10323000082206211B48FEF713F808220721194827
:10324000FEF70EF8C020059002208DF8180003202C
:103250008DF8190000208DF81A0001208DF81B0050
:1032600005A91048FDF7B4FF4FF4E13001900020AC
:10327000ADF80800ADF80A00ADF80C00ADF810008C
:103280000C20ADF80E0001A90748FEF7EFFC012164
:103290000548FEF783FC40210348FEF770FC07B0A9
:1032A00000BD0000000802400014014010B50246B5
:1032B00000200CE0135C074C238000BF054B1B1F54
:1032C0001B8803F04003002BF8D0431CD8B288427F
:1032D000F0DB10BD0414014010B51548006890F8EB
:1032E0002900C0F3400020B90020124908700846A8
:1032F00010BD1148006840B14FF400720E480168DB
:103300000C48FDF759F80B48F2E701F033FA20B109
:103310000AA10848FDF763F803E00AA10548FDF794
:103320005EF80AA10348FDF729F80248E0E700002B
:10333000E801002004660020EC0100206D73682085
:103340000000000066696E73682000003E00000007
:1033500010B501F0ABFC10BD0549096891F82910C2
:1033600060F34101024A126882F829107047000098
:10337000E8010020024A1060024A11607047000014
:10338000D8010020DC0100207CB500251749184831
:10339000FFF7F0FF8021012001F094FB1549086040
:1033A0000846006820B914A001F07AFE681E7CBDB2
:1033B0000A2015214FF480630022CDE90010144942
:1033C00014A002F073FB044600231A4613A1094817
:1033D000006802F028F90120FFF7BEFF1CB115B903
:1033E000204602F079FC0020E1E70000A871000807
:1033F000E8700008E80100206E6F206D656D6F7247
:103400007920666F72207368656C6C0A000000009A
:1034100025340008747368656C6C000073687278FA
:1034200000000000E948006890F8290020F0010041
:10343000401CE649096881F82900FFF74DFF054661
:1034400001F02EFEC1E1FFF783FF0446002C00DAF5
:10345000BBE11B2C05D10120DC49096881F828005B
:10346000B3E1DA48006890F8280001280DD15B2C00
:1034700005D10220D549096881F82800A5E100207E
:10348000D249096881F8280045E0D048006890F8E2
:10349000280002283FD10020CC49096881F8280083
:1034A000412C00D191E1422C00D18EE1442C11D16C
:1034B000C6480068B0F87C0058B1C5A001F0F0FD26
:1034C000C2480068B0F87C00401EC0490968A1F8F5
:1034D0007C007AE1432C1ED1BC480068B0F87C0027
:1034E000BA490968B1F87A10884213DAB748006817
:1034F000B0F87C20B54800682A30815CB5A001F0A6
:10350000CFFDB2480068B0F87C00401CAF490968A4
:10351000A1F87C0059E10CB1FF2C00D155E1092C38
:103520001FD1002503E0AAA001F0BAFD6D1CA74839
:103530000068B0F87C00A842F5DCA44800682A3096
:1035400003F048F8A14800682A30FCF741FF80B238
:103550009E490968A1F87A009C490968A1F87C0095
:1035600033E17F2C01D0082C6ED198480068B0F868
:103570007C0000B929E195480068B0F87A00401E47
:1035800092490968A1F87A0090480068B0F87C0078
:10359000401E8E490968A1F87C008C480068B0F88C
:1035A0007A008A490968B1F87C1088423FDD874B70
:1035B0001B68B3F87A30854E3668B6F87C609A1B83
:1035C000824B1B68B3F87C305B1C804E36682A3611
:1035D00099197E4B1B68B3F87C607C4B1B682A33BF
:1035E000F01801F091FE002278480068B0F87A10D7
:1035F000764800682A30425474480068B0F87C204D
:10360000724800682A30111873A001F049FD6F4814
:103610000068B0F87C5003E06DA001F041FD6D1C26
:103620006A480068B0F87A00A842F5DA0BE06CA0AE
:1036300001F036FD002165480068B0F87A20634843
:1036400000682A308154C0E00D2C01D00A2C2BD107
:1036500001F090F8012812D15C48006890F8290028
:1036600000F0010010B15FA001F01AFD574800689A
:10367000B0F87A10554800682A3000F0D7FFFFF7FD
:103680002BFE054601F00CFD5021504800682A3001
:10369000FCF769FE00204D490968A1F87A004B4902
:1036A0000968A1F87C0090E048480068B0F87A000A
:1036B000502804DB002045490968A1F87A004348F6
:1036C0000068B0F87C0041490968B1F87A10884276
:1036D00045DA3E4B1B68B3F87A303C4E3668B6F894
:1036E0007C609A1B394B1B68B3F87C60374B1B68B6
:1036F0002A33F118354B1B68B3F87C305B1C334E12
:1037000036682A36981901F0FFFD30480068B0F895
:103710007C202E4800682A3084542C48006890F899
:10372000290000F0010050B128480068B0F87C2062
:10373000264800682A3011182BA001F0B1FC23485C
:103740000068B0F87C5003E021A001F0A9FC6D1CDA
:103750001E480068B0F87A00A842F5DC12E01B4869
:103760000068B0F87A20194800682A308454174855
:10377000006890F8290000F0010018B1214615A05A
:1037800001F08EFC002411480068B0F87A00401C5B
:103790000E490968A1F87A000C480068B0F87C006E
:1037A000401C0A490968A1F87C0008480068B0F884
:1037B0007A00502808DB002004490968A1F87A0043
:1037C00002490968A1F87C0000BF3CE6E80100203E
:1037D0000800000025630000082573202008000071
:1037E000082008000A0000002573000000BF054AF9
:1037F000128802F04002002AF9D0C2B2014B1B1D10
:103800001A8070470014014010B52DED0A8B9FED12
:10381000160AB0EE408AFDF757FD0446FCF77FFF1D
:1038200041EC1C0B9FED110B53EC102BFCF796FE9B
:1038300041EC1B0B9FED0F0B53EC102BFCF78EFE96
:1038400041EC1A0B9FED0D0B53EC102BFCF7F8FE1F
:1038500041EC190BFCF783FF08EE100AB0EE480AA2
:10386000BDEC0A8B10BD000000000000E17A14AE30
:1038700047E114406666666666660A40000000001E
:1038800000FEAF4010B52DED0A8B9FED160AB0EE8D
:10389000408AFDF72BFD0446FCF741FF41EC1C0B71
:1038A0009FED110B53EC102BFCF758FE41EC1B0B5A
:1038B0009FED0F0B53EC102BFCF750FE41EC1A0B55
:1038C0009FED0D0B53EC102BFCF7BAFE41EC190BDE
:1038D000FCF745FF08EE100AB0EE480ABDEC0A8B73
:1038E00010BD000000000000E17A14AE47E1144072
:1038F0006666666666660A400000000000FEAF402D
:1039000000B52DED048B85B001A8FDF7D5FD01981C
:10391000FCF705FF41EC190B9FED230B53EC102B2B
:10392000FCF78EFE41EC180B53EC182B20A0FEF791
:1039300083FE0298FCF7F3FE41EC190B9FED1A0B86
:1039400053EC102BFCF77CFE41EC180B53EC182BBE
:103950001EA0FEF771FE0398FCF7E1FE41EC190B87
:103960009FED110B53EC102BFCF76AFE41EC180B8A
:1039700053EC182B1CA0FEF75FFE0498FCF7CFFE5B
:1039800041EC190B9FED080B53EC102BFCF758FE84
:1039900041EC180B53EC182B1AA0FEF74DFE05B0A6
:1039A000BDEC048B00BD00000000000080842E41AF
:1039B000535953434C4B5F4672657175656E63791D
:1039C0003A252E33664D487A0D0A000048434C4B89
:1039D0005F4672657175656E63793A252E33664D63
:1039E000487A0D0A0000000050434C4B315F46728C
:1039F000657175656E63793A252E33664D487A0D8B
:103A00000A00000050434C4B325F46726571756589
:103A10006E63793A252E33664D487A0D0A00000010
:103A200010B51448006800F0020010B112A001F0B7
:103A300037FB1048006800F0804088B10D48C01E78
:103A4000007808B1FFF75EFB0A48001F007808B154
:103A500000F028FD0748801E008808B102F016FE1D
:103A60000448006800F0004010B109A001F018FB04
:103A700010BD00002CED00E06661696C6564207685
:103A80006563746F722066657463680A00000000E5
:103A90006465627567206576656E740A00000000D3
:103AA00010B502A001F0FCFA002010BD48656C6C56
:103AB0006F2052542D546872656164210A00000021
:103AC00000B585B001218803FDF7D6FC0121022055
:103AD000FDF7B2FC4FF48070039000208DF81000C9
:103AE00001208DF8130003A91548FDF771FB08218B
:103AF0000120FDF7C7FD4FF48070009000208DF885
:103B000004000C208DF8050001208DF806006846A1
:103B1000FDF700FA17208DF8080001208DF8090044
:103B200002208DF80A0001208DF80B0002A8FDF795
:103B300029FC4FF48070FDF7DBF905B000BD0000F3
:103B400000040240002400231A4616A1174801F081
:103B50006AFDFFF7B5FF24E000240022012113488D
:103B600001F046FD611E114801F099FD08E0601C5E
:103B700084B20A2002F060F8B4F5967F00DB06E01C
:103B80004FF480710A48FDF78EFB0028EFD000BF8C
:103B9000B4F5967F02DB07A0FEF74EFD012002F090
:103BA0004BF8D9E76B65795F73656D00F4330020DE
:103BB00000040240656E74657220436667206D6F75
:103BC00064650D0A000000002DED088B84B04FF4F1
:103BD0002F7008EE100AFDF725F8FDF771F84FF485
:103BE00000513148FDF76AFBB8EE480AFDF7F6F8D8
:103BF0004FF4FA7002F020F801212C48FDF75EFB2B
:103C0000FFF740FE10EE104A2046FCF795FD41EC10
:103C10001B0B9FED270B53EC102BFCF7F8FB41EC33
:103C2000190BFFF7F1FD10EE104A2046FCF784FD5A
:103C300041EC1B0B9FED1E0B53EC102BFCF7E7FB2D
:103C400041EC1A0B8DED029B8DED008A53EC1A2B83
:103C500019A0FEF7F1FC25E04FF480411248FDF772
:103C60002BFB4FF400711148FDF726FB4FF48071D8
:103C70001C48FDF723FB4FF4FA7001F0DDFF4FF411
:103C800000710A48FDF71AFB4FF480711548FDF7E3
:103C900013FB4FF480410448FDF710FB4FF4FA701A
:103CA00001F0CAFFD8E7000000040240000802400B
:103CB0007B14AE47E17A743F706F775F696E3A2587
:103CC0002E32662C206461635F76616C3A25646DE8
:103CD000562C20706F775F6F75743A252E326620F0
:103CE0000D0A00000000024010B50DA001F0D8F947
:103CF000104804680DE002220FA12068FCF778FB51
:103D000000B905E00DA0D4E9001201F0C9F900BF27
:103D10000C340E4800688442EDD3002010BD000032
:103D20002D2D46756E6374696F6E204C6973743AFD
:103D30000A000000D80100205F5F0000252D313609
:103D400073202D2D2025730A00000000DC010020C7
:103D50002DE9F04704460D4616461F46284601F059
:103D600063FB814609F10408C4F80080257266608F
:103D7000E76000202061BDE8F0872DE9F84F074695
:103D80000C464FF0000A00202061E06808B1207A5C
:103D900010B90020BDE8F88FD4F800801FB945465F
:103DA0004FF0010A00E03D46FCF72AFA0090BAF114
:103DB000000F0ED1A5F1140B9BF8100020F080002D
:103DC000217A884204D00098FCF71EFA0020E1E72F
:103DD00000BF0026D4F804900BE02D68454501D1C2
:103DE000002507E0761C49F8045BE068B04200D18A
:103DF00000E0F2E700BF0098FCF706FA26612846CB
:103E0000C8E700002DE9F04F91B000270FF2D40968
:103E1000082304AA05210CA8FFF79AFF4FF0100809
:103E20004A46414631A001F03BF9404600F01CFDF6
:103E300037A001F035F900BF0CA93846FFF79DFF08
:103E40000746002545E004A850F82500A0F1140617
:103E5000FCF7D6F98346307C20F080009DF83810BE
:103E6000884203D05846FCF7CFF931E05846FCF7BA
:103E7000CBF9344604F11C0001F063F9B8B904F140
:103E80001C0001F066F98246208D618D23461022C8
:103E9000CDE9010A0091414624A001F001F904F1A5
:103EA0001C0002F0B3FB27A001F0FAF80FE004F1C8
:103EB0001C0001F04EF98246208D618D23461022B0
:103EC000CDE9010A009141461FA001F0E9F800BFC9
:103ED0006D1C1098A842B6DC002FADD1002011B0A7
:103EE000BDE8F08F6D61696C626F7800252D2A2E18
:103EF0007320656E7472792073697A6520737573A7
:103F000070656E64207468726561640A0000000068
:103F1000202D2D2D2D20202D2D2D2D202D2D2D2D05
:103F20002D2D2D2D2D2D2D2D2D2D0A00252D2A2E1B
:103F30002A73202530346420202530346420256401
:103F40003A0000000A000000252D2A2E2A732025A1
:103F50003034642020253034642025640A000000B9
:103F600010B50848016808A001F09AF80B480168EC
:103F70000BA001F095F80F4801680FA001F090F830
:103F800010BD00005C010020746F74616C206D65D1
:103F90006D6F72793A2025640A00000060010020EC
:103FA00075736564206D656D6F7279203A202564A4
:103FB0000A000000640100206D6178696D756D2054
:103FC000616C6C6F6361746564206D656D6F72798F
:103FD0003A2025640A0000002DE9F04F8FB0002739
:103FE0000FF2CC09082302AA02210AA8FFF7B0FEAB
:103FF0004FF010084A46414630A001F051F84046C3
:1040000000F032FC34A001F04BF800BF0AA938469A
:10401000FFF7B3FE0746002541E002A850F825004F
:10402000A0F11406FCF7ECF88346307C20F0800009
:104030009DF83010884203D05846FCF7E5F82DE093
:104040005846FCF7E1F8344604F11C0001F079F819
:10405000A8B904F11C0001F07CF88246A08C23462C
:1040600010224146CDE9000A21A001F019F804F11F
:104070001C0002F0CBFA17A001F012F80DE004F1D9
:104080001C0001F066F88246A08C234610224146AF
:10409000CDE9000A1AA001F003F800BF6D1C0E98CC
:1040A000A842BADC002FB1D100200FB0BDE8F08FDC
:1040B00073656D6170686F7265000000252D2A2E92
:1040C00073207620202073757370656E6420746889
:1040D000726561640A000000202D2D2D202D2D2DEC
:1040E0002D2D2D2D2D2D2D2D2D2D2D0A00000000D7
:1040F000252D2A2E2A7320253033642025643A008A
:10410000252D2A2E2A7320253033642025640A00A9
:104110002DE9F04FB3B04FF000090FF21C1B08233C
:1041200025AA01212DA8FFF713FE4FF0100A5A46C9
:104130005146434800F0B4FF504600F095FB41A0C3
:1041400000F0AEFF00BF2DA94846FFF716FE8146DE
:104150004FF0000865E025A850F82800A0F11405EC
:10416000FCF74EF83290287C20F080009DF8BC10BF
:10417000884203D03298FCF747F850E0882229465D
:1041800003A8FCF7D7F83298FCF73EF82C4694F8D1
:104190003D0023461022514600903AA000F080FFD7
:1041A00094F83C0000F00F06012E03D138A000F077
:1041B00077FF15E0022E03D138A000F071FF0FE069
:1041C0001EB939A000F06CFF0AE0042E03D139A01B
:1041D00000F066FF04E0032E02D139A000F060FF7A
:1041E000276B00E07F1C38782328FBD0D4E90C1023
:1041F000791A401A64214843616BB0FBF1F00290D8
:10420000A16BA06CCDE90001636A206BC01A636BDF
:10421000C1181A462DA0029B00F042FF00BF08F112
:1042200001083198404596DCB9F1000F8BD1002090
:1042300033B0BDE8F08F00007468726561640000FF
:10424000486E0008202D2D2D20202D2D2D2D2D2DBB
:104250002D202D2D2D2D2D2D2D2D2D2D202D2D2DA8
:104260002D2D2D2D2D2D2D20202D2D2D2D2D2D20A5
:10427000202D2D2D2D2D2D2D2D2D2D202D2D2D0AAB
:1042800000000000252D2A2E2A73202533642000EB
:10429000207265616479202000000000207375732E
:1042A00070656E640000000020696E697420202033
:1042B0000000000020636C6F736520200000000088
:1042C0002072756E6E696E670000000020307825E0
:1042D000303878203078253038782020202025305C
:1042E000326425252020203078253038782025306C
:1042F00033640A002DE9F04790B000270FF2B409AB
:10430000082303AA0A210BA8FFF722FD4FF010088B
:104310004A46414629A000F0C3FE404600F0A4FAF8
:1043200030A000F0BDFE00BF0BA93846FFF725FD09
:10433000074600262DE003A850F82600A0F114043B
:10434000FBF75EFF8246207C20F080009DF8341051
:10435000884203D05046FBF757FF19E05046FBF761
:1043600053FF2546D5E90B012B461022CDE900016C
:10437000414625A000F094FE687C00F0010018B1D1
:1043800027A000F08DFE02E028A000F089FE00BF0B
:10439000761C0F98B042CEDC002FC5D101F054FD41
:1043A0000446214625A000F07BFE002010B0BDE8A9
:1043B000F087000074696D6572000000252D2A2EBB
:1043C000732020706572696F6469632020207469AE
:1043D0006D656F757420202020202020666C616739
:1043E0000A000000202D2D2D2D2D2D2D2D2D2D20C1
:1043F0002D2D2D2D2D2D2D2D2D2D202D2D2D2D2DFA
:104400002D2D2D2D2D2D0A00252D2A2E2A732030FD
:104410007825303878203078253038782000000032
:104420006163746976617465640A00006465616340
:10443000746976617465640A0000000063757272C5
:10444000656E74207469636B3A3078253038780A69
:1044500000000000FCF75CFF02F044F814E04FF4A9
:1044600000510A48FCF72CFF4FF480510848FCF734
:1044700023FF642001F0E0FB4FF480510448FCF777
:104480001DFF642001F0D8FBE9E7000000080240AE
:104490000004024010B5044600F034FBFFF7DAFFD9
:1044A00010BD000010B51CA000F0FAFD1F480178F7
:1044B0001FA000F0F5FD1D48007800F0010010B1CC
:1044C00021A000F0EDFD1948007800F0020010B1C5
:1044D00020A000F0E5FD1548007800F0080010B1BC
:1044E0001FA000F0DDFD1148007800F0100010B1B1
:1044F0001EA000F0D5FD0D48007800F0800030B11E
:104500000A480C3001681CA000F0CAFD02E01EA0A1
:1045100000F0C6FD10BD00006D656D206D616E611F
:104520006765206661756C743A0A000028ED00E04A
:104530005343425F434653525F4D4653523A30789D
:1045400025303258200000004941434356494F4C22
:10455000200000004441434356494F4C20000000D6
:104560004D554E53544B4552522000004D53544B21
:1045700045525220000000005343422D3E4D4D4114
:10458000523A253038580A000A0000002DE9F04759
:1045900081460026002799F8000028B90021084626
:1045A00000F0A8F8BDE8F0871B48046827E0062261
:1045B0001AA12068FBF71CFF00B11FE0206800F182
:1045C00006084846FBF704FF8246524641464846E5
:1045D000FBF70EFF88B926B947463846FBF7F8FEC9
:1045E00006464146384602F03CF80546B54200DA38
:1045F0002E4641460BA000F053FD00BF0C340A4884
:1046000000688442D3D327B132463946484601F088
:1046100040F900BFC6E70000D80100205F5F636D6E
:10462000645F000025730A00DC01002038B50446F1
:104630000D4601E0641C6D1E2DB120782028F9D0B4
:1046400020780928F6D00DB9002038BD6A462946E1
:104650002046FEF70DF908B90098F6E7204600E07D
:10466000401C0178202902D001780029F8D10021CE
:104670000170214602A000F013FD4FF0FF30E4E787
:1046800025733A20636F6D6D616E64206E6F7420C8
:10469000666F756E642E0A002DE9F04106460D46E0
:1046A00000271048046815E006220FA12068FBF7D8
:1046B0009FFE00B10DE02168881D2A463146FBF7B8
:1046C00097FE28B9A81D2168085C08B9A76805E00D
:1046D00000BF0C34064800688442E5D300BF38466A
:1046E000BDE8F081D80100205F5F636D645F00006A
:1046F000DC01002070B505460E460FA000F0D0FC8E
:10470000144804680EE0062213A12068FBF770FE2F
:1047100000B106E0D4E90002811D11A000F0C0FC48
:1047200000BF0C34114800688442ECD310A000F0A4
:10473000B7FC002070BD000052542D5468726561B2
:1047400064207368656C6C20636F6D6D616E64735B
:104750003A0A0000D80100205F5F636D645F0000CB
:10476000252D313673202D2025730A00DC01002011
:104770000A000000012070472DE9F04782460E46EE
:10478000904654460025002755E003E000202070A5
:10479000641C6D1C2078202802D02078092801D1C3
:1047A000B542F3D3082F12D326A000F079FC4FF0C6
:1047B000000906E058F829102AA000F071FC09F160
:1047C0000109B945F6D326A000F06AFC35E0B542F0
:1047D00000D332E0207822281CD1641C6D1C48F8DC
:1047E00027407F1C09E020785C2804D160782228CB
:1047F00001D1641C6D1C641C6D1C2078222801D022
:10480000B542F0D3B54200D317E000202070641CFD
:104810006D1C10E048F827407F1C01E0641C6D1CF3
:104820002078202804D02078092801D0B542F5D37B
:10483000B54200D301E0B542A7D300BF3846BDE87A
:10484000F0870000546F6F206D616E792061726790
:10485000732021205765206F6E6C79205573653A5F
:104860000A0000002573200010B5044602E004A0F1
:1048700000F016FC201EA4F10104F8D110BD0000C8
:104880002D00000030B51A4C43682468191988427D
:1048900015D04B889BB9174B1B6899420FD0164B0C
:1048A0001B688B4201D1144B18604B684360104B5E
:1048B0001B68C31A0E4D4C682D682C44A3600C4C29
:1048C000836824681A19824211D053887BB90A4B35
:1048D0001B68834201D1084B1A6043685360044B44
:1048E0001B68D31A024D44682D682C44A36030BD68
:1048F0005001002054010020580100202DE9F04F04
:1049000086B00D469C46DDE9106401960F9B04F0CD
:104910004008B8F1000F02D0DFF8708101E0DFF845
:104920007081CDF8008004F01008B8F1000F01D0BC
:1049300024F0010404F00108B8F1000F02D04FF098
:10494000300801E04FF02008C246002704F00208BA
:10495000B8F1000F11D0002A02DA2D2752420CE0E4
:1049600004F00408B8F1000F01D02B2705E004F093
:104970000808B8F1000F00D02027002142B94FF0FD
:10498000300B8846491C0DF1080909F808B01DE0F4
:104990001AE0E146B9F10A0F08D14FF00A0BB2FB59
:1049A000FBFE0BFB1E28B2FBFBF202E002F00F083D
:1049B000120900BFDDF8009019F808B08846491CBC
:1049C0000DF1080909F808B0002AE2D1B14200DD72
:1049D0000E469B1B04F01108B8F1000F10D117B15F
:1049E000002B00DD5B1E06E0A84203D24FF020083A
:1049F00080F80080401CB3F10008A3F10103F3DC50
:104A000027B1A84200D207705B1E401C04F01008BA
:104A1000B8F1000F0AD104E0A84201D280F800A04A
:104A2000401CB3F10008A3F10103F5DC06E0A84245
:104A300003D24FF0300880F80080401CB046761E4C
:104A40008845F4DC08E0A84205D20DF1080818F802
:104A5000018080F80080401CB1F10008A1F1010143
:104A600004DDDDF80480B8F1000FECD106E0A842C7
:104A700003D24FF0200880F80080401CB3F10008FA
:104A8000A3F10103F3DC06B0BDE8F08F356E00083A
:104A9000246E00081CB514200A214FF40063002284
:104AA000CDE90010044905A001F000F804462046B5
:104AB00001F012F91CBD0000954400086D61696E9B
:104AC0000000000070B504460D4604FB05F000F040
:104AD00065FB06462EB104FB05F20021304600F0CE
:104AE00034FC304670BD000010B5044C02E0206874
:104AF0008047241D02488442F9D310BDD4700008B9
:104B0000DC70000810B5044C02E020688047241DCA
:104B100002488442F9D310BDDC700008E47000083C
:104B200010B5FBF76DFB044604480088401C00B23A
:104B3000024908802046FBF767FB10BDAC0100204E
:104B400010B5FBF75DFB04460C480088401E00B220
:104B50000A4908800846B0F9000000280ADC002055
:104B600008802046FBF750FB0548006828B100F09C
:104B7000ABFC02E02046FBF747FB10BDAC01002078
:104B8000B001002070B5054605B970BD1D4800682C
:104B9000854203D31C480068854200D3F5E7A5F1A0
:104BA0000C044FF0FF31194800F079FD608818B10E
:104BB0002088B0F5F55F08D015A000F071FA2388C1
:104BC0006288214619A000F06BFA002060804FF443
:104BD000F550208021480068844201D21F480460BB
:104BE000084960680968611A401A1D490968081A6D
:104BF0001B4908602046FFF745FE044800F026FDEB
:104C000000BFC2E75001002054010020545C002086
:104C1000746F206672656520612062616420646142
:104C2000746120626C6F636B3A0A00006D656D3AC7
:104C3000203078253038782C207573656420666CB8
:104C400061673A2025642C206D6167696320636F7A
:104C500064653A203078253034780A005801002005
:104C60006001002000487047CC4800200048704791
:104C7000CC58002070B5FCF7B9FD0B4800684FF424
:104C80007A71B0FBF1F42046FDF7A8FCFFF72CFF8A
:104C9000FFF7ECFF0446FFF7E5FF0546214600F06D
:104CA00013FE01F0EEFC70BD2401002010B54FF0A2
:104CB000FF3440F225510B48FCF789FF20B1094829
:104CC000FDF770F804460BE008210648FCF772FF78
:104CD00018B108210348FCF749FF052000F0ACFF9C
:104CE000E0B210BD00140140F8B5054600240026CE
:104CF0000D200090284600F0C3FD064600BF0BE0E3
:104D0000285D0A2803D101216846FEF7CFFA281949
:104D10000121FEF7CBFA641CB442F1D3F8BD0000C8
:104D20002DE9F041054605F128062C1D33480068A1
:104D300040B1304631490968884707460FB9BDE898
:104D4000F08100BF2EA0216C00F0AAF930A0616AAA
:104D500000F0A6F932A0A16A00F0A2F934A0E16A3D
:104D600000F09EF936A0216B00F09AF938A0616836
:104D700000F096F93AA0A16800F092F93CA0E16831
:104D800000F08EF93EA0216900F08AF940A0616927
:104D900000F086F942A0A16900F082F944A0E1691F
:104DA00000F07EF946A0216A00F07AF948A0616B14
:104DB00000F076F94AA0A16B00F072F94CA0E16B0B
:104DC00000F06EF9287800F0040048B100F05CFFB4
:104DD000074639464AA000F063F9FFF799F902E067
:104DE0004FA000F05DF9287800F0100010B953A032
:104DF00000F056F9FEF714FE00BFFEE74801002060
:104E00007073723A203078253038780A000000003C
:104E10007230303A203078253038780A00000000AF
:104E20007230313A203078253038780A000000009E
:104E30007230323A203078253038780A000000008D
:104E40007230333A203078253038780A000000007C
:104E50007230343A203078253038780A000000006B
:104E60007230353A203078253038780A000000005A
:104E70007230363A203078253038780A0000000049
:104E80007230373A203078253038780A0000000038
:104E90007230383A203078253038780A0000000027
:104EA0007230393A203078253038780A0000000016
:104EB0007231303A203078253038780A000000000E
:104EC0007231313A203078253038780A00000000FD
:104ED0007231323A203078253038780A00000000EC
:104EE000206C723A203078253038780A00000000B3
:104EF0002070633A203078253038780A00000000AE
:104F000068617264206661756C74206F6E207468CD
:104F1000726561643A2025730D0A0D0A00000000D5
:104F200068617264206661756C74206F6E206861C0
:104F30006E646C65720D0A0D0A0000004650552023
:104F4000616374697665210D0A000000F0B50446BE
:104F50000D461646301D20F0070044380146002259
:104F600003E00D4F41F82270521C112AF9D34D6213
:104F70004FF0000CC1F828C0C1F82CC0C1F830C0F7
:104F8000C1F834C08B63CC634FF0807CC1F840C063
:104F900000270F60F0BD0000EFBEADDE10B5FBF7DF
:104FA0002FF9044604480078401C03490870204645
:104FB000FBF72AF910BD00004C01002010B5FBF7EB
:104FC0001FF9044604480078401E03490870204633
:104FD000FBF71AF910BD00004C01002070B5044623
:104FE0002068A0F11C05284600F030FE002070BDAE
:104FF00070B505460EE0FBF703F906462868A0F1F8
:105000001C044FF0FF30A063204600F01FFE304626
:10501000FBF7FAF8284600F084F80028EBD00020CF
:1050200070BD2DE9F04105460C469046204600F043
:1050300069FEB8F1000F03D0B8F1010F23D105E0EC
:1050400004F11C01284600F065F81DE02E680FE011
:10505000A6F11C0794F83D0097F83D10884206DA47
:1050600004F11C0107F11C0000F054F802E036685E
:10507000AE42EDD100BFAE4204D104F11C0128467E
:1050800000F048F800E000BF00BF0020BDE8F0815C
:1050900010B5044604F11C0000F01EF8002010BDFD
:1050A0000FB438B505A8009040F2FF110948009BE5
:1050B000049A01F059F80446B4F5007F01D340F298
:1050C000FF140448FFF710FE0020009038BC5DF884
:1050D00014FB0000545A002040600060704740609C
:1050E000006070474060006070470268516002686D
:1050F0000A600160486070470268516002680A6097
:105100000160486070470268516002680A6001608F
:10511000486070474268116042684A6041600860B8
:10512000704701460868884201D10120704700207D
:10513000FCE701460868884201D101207047002041
:10514000FCE701460868884201D101207047002031
:10515000FCE7014600200A4601E01268401C136883
:105160008B42FAD17047D0E900215160D0E900129A
:105170001160406000607047D0E900215160D0E9C3
:1051800000121160406000607047D0E9002151605A
:10519000D0E9001211604060006070472DE9F041D5
:1051A000054615B90020BDE8F081E81C20F0030594
:1051B0004E480068854201D90020F4E70C2D00D24A
:1051C0000C254FF0FF314A4800F069FA4948006861
:1051D00049490968461A7EE0474800688419608892
:1051E000002874D106F10C006168081AA8426ED339
:1051F00006F10C006168091A05F11800814230D3EC
:1052000006F10C0000EB05083B48006800EB0807BE
:105210004FF4F55038800020788060687860BE6078
:10522000C4F80480012060803048796800680C3040
:10523000814205D03049786809680844C0F8088080
:105240002E48016805F10C0008442C4908602C48E0
:1052500000680968884219D228480068284908600F
:1052600014E001206080244960680968611A401ACE
:1052700022490968084421490860214800680968F2
:10528000884203D21D4800681D4908604FF4F5505C
:10529000208018480068844212D107E01548006851
:1052A00040681549096808441249086011480068B7
:1052B000408828B10F480068124909688842EDD13A
:1052C0000B4800F0C3F904F10C006CE7FFE70A4853
:1052D00000683044466805480068401BB0423FF60D
:1052E0007BAF034800F0B2F900205CE75C010020CE
:1052F000545C002058010020500100206001002073
:10530000640100205401002070B50C46014623467C
:105310008B4210D29D188D420DD91144134405E0E3
:105320005D1E2B462E784D1E29462E70151EA2F1AD
:105330000102F5D108E003E013F8015B01F8015B1D
:10534000151EA2F10102F7D170BDF0B50C4605465D
:10535000E6B2042A15D300F0030797B9014646EADE
:10536000062343EA034304E008C108C108C108C199
:10537000103A102AF8D201E008C1121F042AFBD209
:105380000D4601E005F8016B171EA2F10102F9D1EB
:10539000F0BD2DE9F04106460F46304600F044F8D6
:1053A0000546E868FFF7FAFE044614B90020BDE898
:1053B000F08100212046EA68FFF7C7FF267400202D
:1053C000607410223946204600F063FAFAF718FF9D
:1053D000804604F11401281DFFF787FE4046FAF7C6
:1053E00013FF2046E3E770B5044600202074FAF767
:1053F00007FF054604F11400FFF7B5FE2846FAF74B
:1054000003FF2046FFF7BEFB70BD70B504460020C9
:105410002074FAF7F5FE054604F11400FFF7A3FE29
:105420002846FAF7F1FE70BD024600210AE007485F
:1054300000EB01100078904203D1044800EB01100A
:105440007047491C0429F2DB0020F9E768010020BD
:105450002DE9F04704460D46904600262846FFF702
:10546000E3FF0746FFF75CFB7E6802E0A6F114004D
:105470003668381D8642F9D1FFF762FB45F080009F
:10548000207410224146204600F003FAFAF7B8FED5
:10549000814604F11401381DFFF727FE4846FAF74C
:1054A000B3FEBDE8F0870146087C00F0800008B13B
:1054B000012070470020FCE710B5FFF76FFD00F0FA
:1054C000C9FCFFF77BFD10BD2DE9F041FAF798FE0E
:1054D00007461848008838BB17480068FDF7D0F821
:1054E000461E164850F83600A0F11C041448006807
:1054F000844218D013490E701148056804601248A0
:10550000007850B904F1240105F12400FAF77FFE78
:105510003846FAF779FEBDE8F08104F1240105F17F
:105520002400FAF774FE00BF3846FAF76DFE00BF9C
:10553000F1E70000AC010020A80100207C5C002005
:10554000B0010020B40100204C01002070B50446D9
:10555000FAF756FE054614F83C0F20F00F0040F015
:105560000100207062783C3C0A4B03EBC20004F15E
:105570001C014268116042684A604160086000BFD7
:105580000549206C09680843034908602846FAF772
:105590003BFE70BD7C5C0020A801002070B5044675
:1055A000FAF72EFE054604F11C00D0E900215160F7
:1055B000D0E9001211604060006000BF94F83D1017
:1055C000094A02EBC1000168814201D1012100E0DA
:1055D000002129B10548216C00688843034908600F
:1055E0002846FAF711FE70BD7C5C0020A80100205F
:1055F0002DE9F04104460E461546012E10D12F46E6
:10560000FAF7FEFD804604F11C00FFF7F1FCA784C9
:105610004046FAF7F9FDFFF757FF0020BDE8F0819B
:105620004FF0FF30FAE72DE9F04104460D461646EB
:105630001F462A4602212046FFF70AFF2046FFF7B1
:1056400027FDA68467740020BDE8F08170B504468C
:105650000025FAF7D5FD064604F11C00FFF761FDB1
:1056600028B904F11C00FFF7B9FC01250EE0A08C5D
:105670004FF6FF71884203DAA08C401CA08405E03D
:105680003046FAF7C1FD6FF0020070BD3046FAF700
:10569000BBFD012D01D1FFF717FF0020F5E773B522
:1056A0000546FAF7ADFD0646A88C002806DDA88C55
:1056B000401EA8843046FAF7A7FD28E0019828B9D3
:1056C0003046FAF7A1FD6FF001007CBD00F0DCFA76
:1056D00004460020A0636A7C214605F11C00FFF708
:1056E000A0FC0198002809DD01AA002104F14C006A
:1056F00000F01AFC04F14C0000F088FC3046FAF788
:1057000083FDFFF7E1FEA06B08B1A06BDDE7002091
:10571000DBE7000008B509A0FFF7C2FC0AA0FFF70D
:10572000BFFC12A0052301220321009012A0FFF765
:10573000B7FC19A0FFF7B4FC08BD00000A205C20EC
:105740007C202F0A000000002D205254202D202004
:10575000202020546872656164204F706572617406
:10576000696E672053797374656D0A004170722009
:105770003236203230323400202F207C205C202032
:1057800020202025642E25642E2564206275696CF6
:10579000642025730A0000002032303036202D208E
:1057A0003230323020436F707972696768742062DA
:1057B000792072742D746872656164207465616DFE
:1057C0000A0000007CB56846FFF78CFCFAF718FD6C
:1057D000064646E028480068A0F11C0400F034FBAF
:1057E0000546206B281A6FF00041884237D22046C8
:1057F000FDF75BFC607C00F0020018B9607C20F0D3
:105800000100607404F11C016846FFF77CFC002075
:105810001A4908703046FAF7F7FCD4E909108847AE
:10582000FAF7EEFC06460120144908706846FFF7B7
:1058300080FC00B115E004F11C00FFF7A6FC607CC1
:1058400000F0020060B1607C00F0010040B1607CBB
:1058500020F001006074204600F0D8FB00E005E075
:1058600000BF0548FFF765FC0028B3D000BF3046F5
:10587000FAF7CAFC7CBD0000CC010020C801002062
:1058800001460A4600E0521C10780028FBD1501A4D
:10589000704770B50346A2B118460C4600BF14F815
:1058A000016B00F8016B3EB902E0002500F8015BD6
:1058B000551E2A1EF9D102E0551E2A1EEFD100BF47
:1058C00000BF184670BD00002DE9F04105460E46A8
:1058D000E81C20F0030726F00308B8F1180F09D9D7
:1058E000A8F11800B84205D3A8EB070018381E49E4
:1058F000086006E0324629461CA0FFF7D1FBBDE850
:10590000F0812948076004684FF4F550208016485C
:1059100000680C3060600020A060608022496068F0
:1059200009680844214908604FF4F5500968088067
:1059300001201E49096848800B4800680C301B494B
:1059400009684860084800680C3018490968886090
:105950000023012216A11848FFF765FE12480068CF
:105960001649086000BFCAE75C0100206D656D2024
:10597000696E69742C206572726F72206265676946
:105980006E206164647265737320307825782C20F2
:10599000616E6420656E6420616464726573732057
:1059A000307825780A0000005001002054010020C2
:1059B0006865617000000000545C00205801002000
:1059C00010B500200B490880002405E00A4901EBCE
:1059D000C400FFF784FB641C202CF7DB1F20074961
:1059E0000870002006490860064908600648FFF76D
:1059F00076FB10BDAC0100207C5C0020B4010020CF
:105A0000B0010020A8010020B801002070B50848AE
:105A10000068FCF735FE451E064850F83500A0F139
:105A20001C040548046004F12400FAF736FC70BD3C
:105A3000A80100207C5C0020B001002010B50024EB
:105A400005E0044901EBC400FFF74CFB641C002C8B
:105A5000F7D010BDC00100201FB5002405E00D499E
:105A600001EBC400FFF73EFB641C002CF7D00A20BA
:105A70000F214FF40062084BCDE90032CDE902104E
:105A80000023064A06A1084800F0BCF8064800F0CA
:105A900023F91FBDCC010020045E0020695D0008D1
:105AA00074696D65720000007C5D00202DE9FF5F68
:105AB00006460F4690461D46DDE90EAB31460120F5
:105AC000FFF767FC8146B9F1000F03D1002004B055
:105AD000BDE8F09F2846FFF761FB044624B948461D
